:020000040800F2
:10000000C0060020890100089B050008B503000810
:1000100097050008430200080508000800000000DA
:10002000000000000000000000000000B50600080D
:1000300047020008000000009D050008A107000815
:10004000A3010008A3010008A3010008A301000800
:10005000A3010008A3010008A3010008A3010008F0
:10006000A3010008A3010008A3010008A3010008E0
:10007000A3010008A3010008A3010008A3010008D0
:10008000A3010008A3010008A3010008A3010008C0
:10009000A3010008A3010008A3010008A3010008B0
:1000A000A3010008A3010008A3010008A3010008A0
:1000B000A3010008A3010008A3010008A301000890
:1000C000A3010008A3010008A3010008A301000880
:1000D000A3010008A3010008A3010008A301000870
:1000E000A3010008A3010008A301000800F002F822
:1000F00000F03AF80AA090E8000C82448344AAF188
:100100000107DA4501D100F02FF8AFF2090EBAE885
:100110000F0013F0010F18BFFB1A43F0010318473B
:10012000180E0000380E0000103A24BF78C878C1BD
:10013000FAD8520724BF30C830C144BF04680C60ED
:10014000704700000023002400250026103A28BF35
:1001500078C1FBD8520728BF30C148BF0B60704739
:100160001FB51FBD10B510BD00F031F81146FFF7E7
:10017000F7FF00F0BBFD00F04FF803B4FFF7F2FF0C
:1001800003BC00F057F800000948804709480047C1
:10019000FEE7FEE7FEE7FEE7FEE7FEE7FEE7FEE737
:1001A000FEE7FEE704480549054A064B7047000094
:1001B000A5070008ED000008C0000020C0060020D0
:1001C000C0020020C002002070477047704775468B
:1001D00000F02CF8AE4605006946534620F00700B3
:1001E000854618B020B5FFF7DDFFBDE820404FF091
:1001F00000064FF000074FF000084FF0000B21F011
:100200000701AC46ACE8C009ACE8C009ACE8C009DD
:10021000ACE8C0098D46704710B50446AFF30080C6
:100220002046BDE81040FFF7A8BF00000048704717
:100230006000002001491820ABBEFEE72600020046
:10024000704700BFFEE77047002109E0002201E08F
:10025000531C9AB242F6FF239A42F9DB4B1C99B227
:100260008142F3DB704710B5012000F079FC0A20D1
:10027000FFF7EAFF10BD2DE9F041024600250026F8
:10028000002000230024002791F803C00CF00F0584
:1002900091F803C00CF0100CBCF1000F03D091F8E2
:1002A00002C04CEA050591F800C0BCF1000F31D046
:1002B000146800202BE04FF0010C0CFA00F3B1F8A9
:1002C00000C00CEA03069E4220D183004FF00F0CC1
:1002D0000CFA03F7BC4305FA03FC4CEA040491F85A
:1002E00003C0BCF1280F06D14FF0010C0CFA00FC42
:1002F000C2F814C00AE091F803C0BCF1480F05D160
:100300004FF0010C0CFA00FCC2F810C0401C082889
:10031000D1D31460B1F800C0BCF1FF0F34DD5468D4
:1003200000202EE000F1080C4FF0010808FA0CF351
:10033000B1F800C00CEA03069E4221D183004FF0C1
:100340000F0C0CFA03F7BC4305FA03FC4CEA040457
:1003500091F803C0BCF1280F05D100F1080C08FA90
:100360000CF8C2F8148091F803C0BCF1480F07D113
:1003700000F1080C4FF0010808FA0CF8C2F81080E0
:10038000401C0828CED35460BDE8F081024600200E
:1003900093680B400BB1012000E00020704702463B
:1003A0000020D3680B400BB1012000E00020704713
:1003B000C160704700BFFEE770B50246002400250B
:1003C00000230020958A138B1B0445EA030626F0C0
:1003D0007F4404EA01068E4201D1012000E00020A2
:1003E00070BD21B1028842F00102028004E002885F
:1003F0004FF6FE731A4002807047000010B50121CD
:10040000480500F0CDF80121082000F0D9F8C020FF
:100410000F490880032088701C20C8700D48FFF722
:100420002AFF00200C4988804BF6FF70C88000200E
:1004300008814FF480604881000188810748086086
:10044000074800F027F801210548FFF7CAFF10BD53
:1004500018000020000C014044000020A08601008C
:100460000054004021B1028842F48072028004E00E
:1004700002884FF6FF631A400280704721B102885C
:1004800042F40072028004E002884FF6FF531A40E3
:10049000028070472DE9F04385B004460D460026E2
:1004A000B1460427DFF8CC80A6884FF6C07006401E
:1004B000684600F095F8DDF808802F48B8FBF0F0AA
:1004C0001FFA80F946EA0906A68020884FF6FE71D9
:1004D0000840208000262949286888420CD82868CE
:1004E0004000B8FBF0F087B2042F00DA04273E4347
:1004F00009F10100208427E0E8884BF6FF7188426B
:1005000006D1286800EB4000B8FBF0F087B209E0A4
:10051000286800EBC00101EB0010B8FBF0F087B2D7
:1005200047F48047C7F30B0008B947F0010747F4C9
:10053000004006434FF4967009FB00F04FF47A71C7
:1005400090FBF1F0401C2084A683208840F001003D
:10055000208026884FF6F5300640A8886989084330
:1005600006432680A88929890843208105B0BDE873
:10057000F083000000127A0040420F00A0860100C4
:1005800012B141F0010102E04FF6FE731940018201
:1005900070470182704700BFFEE770477047000058
:1005A00029B1064AD2690243044BDA6104E0034AE6
:1005B000D2698243014BDA617047000000100240AB
:1005C00029B1064A92690243044B9A6104E0034A46
:1005D00092698243014B9A6170470000001002400B
:1005E00030B500210022002400232D4D6D6805F058
:1005F0000C0121B1042905D0082923D105E0294D9A
:10060000056022E0274D05601FE0254D6D6805F46B
:100610007012234D6D6805F48034022505EB92427B
:100620001CB9214D554305600BE01D4D6D6805F467
:1006300000351DB11C4D5543056002E0194D554371
:10064000056002E0174D056000BF00BF144D6D68E6
:1006500005F0F0010909154D6B5C0568DD4045604A
:100660000F4D6D6805F4E061090A104D6B5C45683B
:10067000DD4085600A4D6D6805F46051C90A0B4D77
:100680006B5C4568DD40C560054D6D6805F4404113
:10069000890B074D6B5CC568B5FBF3F5056130BD93
:1006A0000010024000127A0000093D000000002006
:1006B00010000020704710B500F002F810BD0000D7
:1006C0000CB50020019000903348006840F4803061
:1006D0003149086000BF3048006800F400300090E5
:1006E0000198401C0190009818B90198B0F5A06FCE
:1006F000F1D12948006800F4003010B101200090C9
:1007000001E0002000900098012843D123480068B0
:1007100040F01000214908600846006820F00300FE
:1007200008600846006840F0020008601A48406807
:10073000194948600846406848600846406840F4E7
:10074000806048600846406820F47C104860084695
:10075000406840F4E81048600846006840F0807047
:10076000086000BF0C48006800F000700028F9D055
:100770000948406820F0030007494860084640687F
:1007800040F00200486000BF0348406800F00C00E1
:100790000828F9D10CBD00000010024000200240E2
:1007A0007047000010B51348006840F0010011497F
:1007B000086008464068104908400E4948600846ED
:1007C00000680E4908400B4908600846006820F49C
:1007D000802008600846406820F4FE0048604FF41E
:1007E0001F008860FFF767FF4FF000600449086052
:1007F00010BD0000001002400000FFF8FFFFF6FEF1
:1008000008ED00E000BFFEE710B501210420FFF76E
:10081000D7FE10200949C870F02008800320887096
:100820000748FFF728FD48200449C8700F200880BA
:10083000032088700248FFF71EFD10BD1400002041
:100840000008014010B5EF21C448FFF7B1FD1021A9
:10085000C248FFF7A4FD002857D10121BF48FFF788
:1008600095FD80B90A20FFF7EFFC0121BB48FFF797
:100870008DFD40B900BF0121B848FFF787FD002872
:10088000F9D0312010BD0221B448FFF77FFD80B9B7
:100890000A20FFF7D9FC0221B048FFF777FD40B9E5
:1008A00000BF0221AD48FFF771FD0028F9D03420C8
:1008B000E8E70421A948FFF769FD80B90A20FFF79E
:1008C000C3FC0421A548FFF761FD40B900BF042126
:1008D000A248FFF75BFD0028F9D03720D2E70821B6
:1008E0009E48FFF753FD80B90A20FFF7ADFC0821B1
:1008F0009A48FFF74BFD40B900BF08219748FFF722
:1009000045FD0028F9D02A20BCE7DF219348FFF7F6
:100910004FFD20219148FFF742FD002857D10121CA
:100920008E48FFF733FD80B90A20FFF78DFC0121C7
:100930008A48FFF72BFD40B900BF01218748FFF728
:1009400025FD0028F9D032209CE702218348FFF7DB
:100950001DFD80B90A20FFF777FC02217F48FFF7D1
:1009600015FD40B900BF02217C48FFF70FFD0028AC
:10097000F9D0352086E704217848FFF707FD80B9D4
:100980000A20FFF761FC04217448FFF7FFFC40B91F
:1009900000BF04217148FFF7F9FC0028F9D0382086
:1009A00070E708216D48FFF7F1FC80B90A20FFF7D6
:1009B0004BFC08216948FFF7E9FC40B900BF08215A
:1009C0006648FFF7E3FC0028F9D030205AE7BF2142
:1009D0006248FFF7EDFC40216048FFF7E0FC00288B
:1009E00057D101215D48FFF7D1FC80B90A20FFF7FC
:1009F0002BFC01215948FFF7C9FC40B900BF012178
:100A00005648FFF7C3FC0028F9D033203AE702210B
:100A10005248FFF7BBFC80B90A20FFF715FC022102
:100A20004E48FFF7B3FC40B900BF02214B48FFF727
:100A3000ADFC0028F9D0362024E704214748FFF711
:100A4000A5FC80B90A20FFF7FFFB04214348FFF70C
:100A50009DFC40B900BF04214048FFF797FC0028E7
:100A6000F9D039200EE708213C48FFF78FFC80B908
:100A70000A20FFF7E9FB08213848FFF787FC40B957
:100A800000BF08213548FFF781FC0028F9D023205A
:100A9000F8E67F213148FFF78BFC80212F48FFF7D4
:100AA0007EFCE0BB01212D48FFF770FC80B90A20D5
:100AB000FFF7CAFB01212948FFF768FC40B900BFD6
:100AC00001212648FFF762FC0028F9D04120D9E631
:100AD00002212248FFF75AFC80B90A20FFF7B4FB35
:100AE00002211E48FFF752FC40B900BF02211B48FB
:100AF000FFF74CFC0028F9D04220C3E60421174838
:100B0000FFF744FC90B90A20FFF79EFB042113482D
:100B1000FFF73CFC50B900BF0421104800E01BE087
:100B2000FFF734FC0028F7D04320ABE608210B4840
:100B3000FFF72CFC80B90A20FFF786FB0821074845
:100B4000FFF724FC40B900BF08210448FFF71EFC52
:100B50000028F9D0442095E6FF2093E600080140E4
:100B6000F8B50446002604F0F007F02000EA04156A
:100B700047F00C008DF8000045F008008DF80100EA
:100B800045F00C008DF8020045F008008DF80300D8
:100B900000BF05E01DF8060000F028F8701CC6B282
:100BA000042EF7DBF8BDF8B50446002504F0F00686
:100BB000F02000EA041746F00D008DF8000046F022
:100BC00009008DF8010047F00D008DF8020047F094
:100BD00009008DF8030000BF05E01DF8050000F0D6
:100BE00005F8681CC5B2042DF7DBF8BD10B5044646
:100BF00001211348FFF736FC00BF12491048FFF7E8
:100C0000DBFB0028F9D000224E210D48FFF7B8FC8D
:100C100000BF0D490A48FFF7CFFB0028F9D0214655
:100C20000748FFF7B6FC00BF0749891C0448FFF7D7
:100C3000C3FB0028F8D001210148FFF71FFC10BDBD
:100C400000540040010003008200070070B5044614
:100C50000D46012C04D104F17F002844C6B204E003
:100C600005F14000C0B240F080063046FFF778FF43
:100C700070BD10B53320FFF773FF0A20FFF7E4FAC9
:100C80003220FFF76DFF3220FFF7DEFA2820FFF752
:100C900067FF3220FFF7D8FA0120FFF761FF32200B
:100CA000FFF7D2FA0620FFF75BFF3220FFF7CCFAFE
:100CB0000C20FFF755FF3220FFF7C6FA0220FFF79E
:100CC0004FFF3220FFF7C0FA8020FFF749FF3220A4
:100CD000FFF7BAFA10BD10B5044603E014F8010B93
:100CE000FFF761FF20780028F8D110BD7B4800682D
:100CF0004FF47A72B0FBF2F1B1F1807F00D31DE0C6
:100D000021F07F40401E4FF0E022506150170F222B
:100D1000002807DA13071D0E714B00F00F04241F83
:100D20001D5503E013071C0E6E4B1C5400BF002022
:100D30004FF0E02290610720106100BFFFF75EFBDB
:100D4000FFF762FDFFF795FFFFF78DFA0021012005
:100D5000FFF77CFF64A0FFF7BEFF00210220FFF732
:100D600075FF66A0FFF7B7FF002066490880B3E073
:100D7000FFF768FD64490870084600782A280CD1FE
:100D800000210220FFF762FF60A0FFF7A4FF01200F
:100D9000614908800020614908805B480078232869
:100DA00010D0584800885D490988884201D1012047
:100DB00000E000205349098809B1012100E0002129
:100DC0000840A0B10020544908804E490880FFF730
:100DD0004AFA00210120FFF739FF43A0FFF77BFF0C
:100DE00000210220FFF732FF44A0FFF774FF4A48BA
:100DF0000088E8B1444800782A2819D04248007891
:100E0000FF2815D0404801784548444A128881544B
:100E10004248008800F10A010220FFF717FF3A4814
:100E20000078FFF7C0FE3D480088401C3B49088021
:100E300035480078FF284FD03748008800284BD12C
:100E400031480078232847D02F48017835482D4A6B
:100E5000128881542B480088411D0220FFF7F6FEBE
:100E600029480078FFF79FFE26480088401C254946
:100E70000880084600882949098888422CD1012524
:100E80004FF47A70FFF7E0F9002413E02548005D85
:100E90002349095D88420CD005210220FFF7D6FEC8
:100EA00021A0FFF718FF4FF47A70FFF7CDF9002566
:100EB00004E0641C194800888442E7DB00BF55B198
:100EC00005210220FFF7C2FE19A0FFF704FF4FF42F
:100ED0007A70FFF7B9F900BF4AE700003000002040
:100EE00018ED00E000E400E050617373776F726406
:100EF000206D6F206B686F6100000000506173739C
:100F00003A0000001E0000201C0000204E657720E3
:100F1000506173733A00000022000020200000207E
:100F200024000020540000206D6B207361690000D4
:100F30006D6F206B686F6100580F00080000002083
:100F400044000000280100089C0F00084400002015
:100F50007C060000440100080000000001020304B8
:100F60000102030406070809020406080000000045
:100F700000000000000000000500000031313131A8
:100F8000310000000000000000A24A040000000040
:0C0F90000000000001020304060708092D
:040000050800018965
:00000001FF
