:020000040800F2
:10000000C006002089010008A3050008BF030008FE
:100010009F050008430200080D08000800000000CA
:10002000000000000000000000000000BD06000805
:100030004702000800000000A5050008A907000805
:10004000A3010008A3010008A3010008A301000800
:10005000A3010008A3010008A3010008A3010008F0
:10006000A3010008A3010008A3010008A3010008E0
:10007000A3010008A3010008A3010008A3010008D0
:10008000A3010008A3010008A3010008A3010008C0
:10009000A3010008A3010008A3010008A3010008B0
:1000A000A3010008A3010008A3010008A3010008A0
:1000B000A3010008A3010008A3010008A301000890
:1000C000A3010008A3010008A3010008A301000880
:1000D000A3010008A3010008A3010008A301000870
:1000E000A3010008A3010008A301000800F002F822
:1000F00000F03AF80AA090E8000C82448344AAF188
:100100000107DA4501D100F02FF8AFF2090EBAE885
:100110000F0013F0010F18BFFB1A43F0010318473B
:10012000600E0000800E0000103A24BF78C878C12D
:10013000FAD8520724BF30C830C144BF04680C60ED
:10014000704700000023002400250026103A28BF35
:1001500078C1FBD8520728BF30C148BF0B60704739
:100160001FB51FBD10B510BD00F031F81146FFF7E7
:10017000F7FF00F0D5FD00F04FF803B4FFF7F2FFF2
:1001800003BC00F057F800000948804709480047C1
:10019000FEE7FEE7FEE7FEE7FEE7FEE7FEE7FEE737
:1001A000FEE7FEE704480549054A064B7047000094
:1001B000AD070008ED000008C0000020C0060020C8
:1001C000C0020020C002002070477047704775468B
:1001D00000F02CF8AE4605006946534620F00700B3
:1001E000854618B020B5FFF7DDFFBDE820404FF091
:1001F00000064FF000074FF000084FF0000B21F011
:100200000701AC46ACE8C009ACE8C009ACE8C009DD
:10021000ACE8C0098D46704710B50446AFF30080C6
:100220002046BDE81040FFF7A8BF00000048704717
:100230006000002001491820ABBEFEE72600020046
:10024000704700BFFEE77047002109E0002201E08F
:10025000531C9AB242F6FF239A42F9DB4B1C99B227
:100260008142F3DB704710B5012000F093FC0A20B7
:10027000FFF7EAFF10BD2DE9F041024600250026F8
:10028000002000230024002791F803C00CF00F0584
:1002900091F803C00CF0100CBCF1000F03D091F8E2
:1002A00002C04CEA050591F800C0BCF1000F31D046
:1002B000146800202BE04FF0010C0CFA00F3B1F8A9
:1002C00000C00CEA03069E4220D183004FF00F0CC1
:1002D0000CFA03F7BC4305FA03FC4CEA040491F85A
:1002E00003C0BCF1280F06D14FF0010C0CFA00FC42
:1002F000C2F814C00AE091F803C0BCF1480F05D160
:100300004FF0010C0CFA00FCC2F810C0401C082889
:10031000D1D31460B1F800C0BCF1FF0F34DD5468D4
:1003200000202EE000F1080C4FF0010808FA0CF351
:10033000B1F800C00CEA03069E4221D183004FF0C1
:100340000F0C0CFA03F7BC4305FA03FC4CEA040457
:1003500091F803C0BCF1280F05D100F1080C08FA90
:100360000CF8C2F8148091F803C0BCF1480F07D113
:1003700000F1080C4FF0010808FA0CF8C2F81080E0
:10038000401C0828CED35460BDE8F081024600200E
:1003900093680B400BB1012000E00020704702463B
:1003A0000020D3680B400BB1012000E00020704713
:1003B000C16070470AB1016100E04161704700BF50
:1003C000FEE770B502460024002500230020958A30
:1003D000138B1B0445EA030626F07F4404EA01065A
:1003E0008E4201D1012000E0002070BD21B10288C1
:1003F00042F00102028004E002884FF6FE731A40C8
:100400000280704710B50121480500F0CDF80121A8
:10041000082000F0D9F8C0200F4908800320887018
:100420001C20C8700D48FFF726FF00200C4988806B
:100430004BF6FF70C880002008814FF4806048812F
:100440000001888107480860074800F027F801216B
:100450000548FFF7CBFF10BD18000020000C01403D
:1004600044000020A08601000054004021B1028811
:1004700042F48072028004E002884FF6FF631A4063
:100480000280704721B1028842F40072028004E0C9
:1004900002884FF6FF531A40028070472DE9F0435F
:1004A00085B004460D460026B1460427DFF8CC800F
:1004B000A6884FF6C0700640684600F095F8DDF853
:1004C00008802F48B8FBF0F01FFA80F946EA0906C9
:1004D000A68020884FF6FE7108402080002629491A
:1004E000286888420CD828684000B8FBF0F087B232
:1004F000042F00DA04273E4309F10100208427E09D
:10050000E8884BF6FF71884206D1286800EB40006E
:10051000B8FBF0F087B209E0286800EBC00101EBFE
:100520000010B8FBF0F087B247F48047C7F30B0028
:1005300008B947F0010747F4004006434FF49670AE
:1005400009FB00F04FF47A7190FBF1F0401C20841D
:10055000A683208840F00100208026884FF6F530E1
:100560000640A8886989084306432680A889298906
:100570000843208105B0BDE8F083000000127A0036
:1005800040420F00A086010012B141F0010102E0DB
:100590004FF6FE731940018270470182704700BF19
:1005A000FEE770477047000029B1064AD26902434E
:1005B000044BDA6104E0034AD2698243014BDA61F9
:1005C000704700000010024029B1064A92690243B8
:1005D000044B9A6104E0034A92698243014B9A6199
:1005E000704700000010024030B5002100220024B6
:1005F00000232D4D6D6805F00C0121B1042905D0B3
:10060000082923D105E0294D056022E0274D05602A
:100610001FE0254D6D6805F47012234D6D6805F4DB
:100620008034022505EB92421CB9214D55430560EB
:100630000BE01D4D6D6805F400351DB11C4D554393
:10064000056002E0194D5543056002E0174D056055
:1006500000BF00BF144D6D6805F0F0010909154D8C
:100660006B5C0568DD4045600F4D6D6805F4E06129
:10067000090A104D6B5C4568DD4085600A4D6D6868
:1006800005F46051C90A0B4D6B5C4568DD40C560DF
:10069000054D6D6805F44041890B074D6B5CC568DD
:1006A000B5FBF3F5056130BD0010024000127A0081
:1006B00000093D000000002010000020704710B528
:1006C00000F002F810BD00000CB500200190009071
:1006D0003348006840F480303149086000BF30483A
:1006E000006800F4003000900198401C01900098D0
:1006F00018B90198B0F5A06FF1D12948006800F44D
:10070000003010B10120009001E00020009000981E
:10071000012843D12348006840F0100021490860B7
:100720000846006820F0030008600846006840F0B2
:10073000020008601A484068194948600846406845
:1007400048600846406840F4806048600846406859
:1007500020F47C1048600846406840F4E810486087
:100760000846006840F08070086000BF0C480068D0
:1007700000F000700028F9D00948406820F003001C
:10078000074948600846406840F00200486000BFE2
:100790000348406800F00C000828F9D10CBD0000A7
:1007A00000100240002002407047000010B51348BE
:1007B000006840F00100114908600846406810498F
:1007C00008400E494860084600680E4908400B4939
:1007D00008600846006820F48020086008464068E9
:1007E00020F4FE0048604FF41F008860FFF767FFA9
:1007F0004FF000600449086010BD00000010024086
:100800000000FFF8FFFFF6FE08ED00E000BFFEE786
:1008100008B501211020FFF7D7FE10208DF8030046
:100820004002ADF8000003208DF80200694602483E
:10083000FFF721FD08BD00000010014010B50121A7
:100840000420FFF7C1FE10200949C870F02008807D
:10085000032088700748FFF70EFD48200449C87040
:100860000F200880032088700248FFF704FD10BDA8
:10087000140000200008014010B5EF21C448FFF724
:1008800097FD1021C248FFF78AFD002857D10121AA
:10089000BF48FFF77BFD80B90A20FFF7D5FC012197
:1008A000BB48FFF773FD40B900BF0121B848FFF70F
:1008B0006DFD0028F9D0312010BD0221B448FFF7AA
:1008C00065FD80B90A20FFF7BFFC0221B048FFF7A1
:1008D0005DFD40B900BF0221AD48FFF757FD00287C
:1008E000F9D03420E8E70421A948FFF74FFD80B98B
:1008F0000A20FFF7A9FC0421A548FFF747FD40B9EE
:1009000000BF0421A248FFF741FD0028F9D037209D
:10091000D2E708219E48FFF739FD80B90A20FFF78A
:1009200093FC08219A48FFF731FD40B900BF082128
:100930009748FFF72BFD0028F9D02A20BCE7DF21DC
:100940009348FFF735FD20219148FFF728FD002847
:1009500057D101218E48FFF719FD80B90A20FFF712
:1009600073FC01218A48FFF711FD40B900BF012146
:100970008748FFF70BFD0028F9D032209CE70221C1
:100980008348FFF703FD80B90A20FFF75DFC0221D1
:100990007F48FFF7FBFC40B900BF02217C48FFF70E
:1009A000F5FC0028F9D0352086E704217848FFF7C8
:1009B000EDFC80B90A20FFF747FC04217448FFF7DB
:1009C000E5FC40B900BF04217148FFF7DFFC0028B7
:1009D000F9D0382070E708216D48FFF7D7FC80B9BF
:1009E0000A20FFF731FC08216948FFF7CFFC40B926
:1009F00000BF08216648FFF7C9FC0028F9D0302065
:100A00005AE7BF216248FFF7D3FC40216048FFF757
:100A1000C6FC002857D101215D48FFF7B7FC80B91B
:100A20000A20FFF711FC01215948FFF7AFFC40B93C
:100A300000BF01215648FFF7A9FC0028F9D0332058
:100A40003AE702215248FFF7A1FC80B90A20FFF7DC
:100A5000FBFB02214E48FFF799FC40B900BF022181
:100A60004B48FFF793FC0028F9D0362024E70421F7
:100A70004748FFF78BFC80B90A20FFF7E5FB04210C
:100A80004348FFF783FC40B900BF04214048FFF70B
:100A90007DFC0028F9D039200EE708213C48FFF7FB
:100AA00075FC80B90A20FFF7CFFB08213848FFF713
:100AB0006DFC40B900BF08213548FFF767FC0028EE
:100AC000F9D02320F8E67F213148FFF771FC80211F
:100AD0002F48FFF764FCE0BB01212D48FFF756FCCF
:100AE00080B90A20FFF7B0FB01212948FFF74EFC2F
:100AF00040B900BF01212648FFF748FC0028F9D083
:100B00004120D9E602212248FFF740FC80B90A20A3
:100B1000FFF79AFB02211E48FFF738FC40B900BFDF
:100B200002211B48FFF732FC0028F9D04220C3E61F
:100B300004211748FFF72AFC90B90A20FFF784FB2D
:100B400004211348FFF722FC50B900BF04211048CC
:100B500000E01BE0FFF71AFC0028F7D04320ABE6CB
:100B600008210B48FFF712FC80B90A20FFF76CFB45
:100B700008210748FFF70AFC40B900BF08210448D4
:100B8000FFF704FC0028F9D0442095E6FF2093E607
:100B900000080140F8B50446002604F0F007F020F4
:100BA00000EA041547F00C008DF8000045F008003D
:100BB0008DF8010045F00C008DF8020045F00800AA
:100BC0008DF8030000BF05E01DF8060000F028F8CE
:100BD000701CC6B2042EF7DBF8BDF8B5044600253C
:100BE00004F0F006F02000EA041746F00D008DF83E
:100BF000000046F009008DF8010047F00D008DF867
:100C0000020047F009008DF8030000BF05E01DF861
:100C1000050000F005F8681CC5B2042DF7DBF8BD2F
:100C200010B5044601211348FFF720FC00BF12490C
:100C30001048FFF7C6FB0028F9D000224E210D48CE
:100C4000FFF7A2FC00BF0D490A48FFF7BAFB0028D6
:100C5000F9D021460748FFF7A0FC00BF0749891CCF
:100C60000448FFF7AEFB0028F8D001210148FFF748
:100C700009FC10BD00540040010003008200070081
:100C800070B504460D46012C04D104F17F002844C0
:100C9000C6B204E005F14000C0B240F08006304624
:100CA000FFF778FF70BD10B53320FFF773FF0A2000
:100CB000FFF7CAFA3220FFF76DFF3220FFF7C4FAC0
:100CC0002820FFF767FF3220FFF7BEFA0120FFF769
:100CD00061FF3220FFF7B8FA0620FFF75BFF3220F2
:100CE000FFF7B2FA0C20FFF755FF3220FFF7ACFAFE
:100CF0000220FFF74FFF3220FFF7A6FA8020FFF710
:100D000049FF3220FFF7A0FA10BD10B5044603E0FA
:100D100014F8010BFFF761FF20780028F8D110BD0F
:100D20007F4800684FF47A72B0FBF2F1B1F1807F36
:100D300000D31DE021F07F40401E4FF0E0225061C3
:100D400050170F22002807DA13071D0E754B00F00D
:100D50000F04241F1D5503E013071C0E724B1C5477
:100D600000BF00204FF0E02290610720106100BF1B
:100D7000FFF748FBFFF762FDFFF795FFFFF748FD20
:100D8000012251036948FFF715FBFFF76CFA0121B7
:100D90000846FFF775FF66A0FFF7B7FF0020684918
:100DA0000880BCE0FFF768FD6649087008460078D7
:100DB0002A280ED1FFF757FA02210120FFF760FF22
:100DC00061A0FFF7A2FF012063490880002063496A
:100DD00008805C480078232810D0594800885F4973
:100DE0000988884201D1012000E000205449098887
:100DF00009B1012100E00021084068B100205649F6
:100E000008804F490880FFF72EFA01210846FFF7B6
:100E100037FF47A0FFF779FF4F480088E0B1494806
:100E200000782A2818D047480078FF2814D0454871
:100E300001784B48494A1288815448480088811CEF
:100E40000220FFF71DFF3F480078FFF7C6FE43482A
:100E50000088401C414908803A480078FF285ED04D
:100E60003D48008800285AD136480078232856D0BB
:100E7000344801783B48324A12888154304800880F
:100E8000411D0220FFF7FCFE2E480078FFF7A5FE6B
:100E90002B480088401C2A490880084600882F49B2
:100EA000098888423BD101254FF47A70FFF7CCF9CD
:100EB000002415E02B48005D2949095D88420ED0C9
:100EC000FFF7D1F903210120FFF7DAFE26A0FFF793
:100ED0001CFF4FF47A70FFF7B7F9002504E0641C9B
:100EE0001E4800888442E5DB00BFBDB1FFF7BBF9B7
:100EF00002210120FFF7C4FE1EA0FFF706FF00221B
:100F00004FF400510948FFF755FA4FF47A70FFF794
:100F10009BF9012251030548FFF74CFA00BF41E756
:100F20003000002018ED00E000E400E00010014077
:100F3000456E7465722050617373776F7264000040
:100F40001E0000201C0000204E6577205061737346
:100F5000776F726400000000220000202000002053
:100F60002400002054000020496E636F7272656394
:100F7000742100005375636365737366756C21009B
:100F8000A00F000800000020440000002801000815
:100F9000E40F0008440000207C0600004401000823
:100FA000000000000102030401020304060708090F
:100FB000020406080000000000000000000000001D
:100FC0000500000031313131310000000000000027
:100FD00000A24A0400000000000000000102030417
:040FE00006070809EF
:040000050800018965
:00000001FF
